8=FIX.4.1|9=105|35=D|34=3|49=CLIENT|52=20121105-23:24:42|56=SERVER|11=1352157882577|21=1|38=10000|40=1|54=1|55=MSFT|59=0|10=062|