8=FIX.4.1|9=139|35=8|34=3|49=EXEC|52=20121105-23:24:42|56=BANZAI|6=0|11=1352157882577|14=0|17=1|20=0|31=0|32=0|37=1|38=10000|39=0|55=MSFT|150=2|151=0|10=059|